{
  "contractName": "Hello",
  "abi": [
    {
      "constant": false,
      "inputs": [
        {
          "internalType": "string",
          "name": "name",
          "type": "string"
        }
      ],
      "name": "say",
      "outputs": [
        {
          "internalType": "string",
          "name": "",
          "type": "string"
        }
      ],
      "payable": false,
      "stateMutability": "nonpayable",
      "type": "function"
    }
  ],
  "bytecode": "0x608060405234801561001057600080fd5b506101a3806100206000396000f3fe608060405234801561001057600080fd5b506004361061002b5760003560e01c8063d5c6130114610030575b600080fd5b6100e96004803603602081101561004657600080fd5b810190808035906020019064010000000081111561006357600080fd5b82018360208201111561007557600080fd5b8035906020019184600183028401116401000000008311171561009757600080fd5b91908080601f016020809104026020016040519081016040528093929190818152602001838380828437600081840152601f19601f820116905080830192505050505050509192919290505050610164565b6040518080602001828103825283818151815260200191508051906020019080838360005b8381101561012957808201518184015260208101905061010e565b50505050905090810190601f1680156101565780820380516001836020036101000a031916815260200191505b509250505060405180910390f35b606081905091905056fea265627a7a72315820ae9d4e94af0259c49b05b5b4ffbdb114d45fb1878772cde01e086861365f78a364736f6c63430005100032",
  "source": "// SPDX-License-Identifier: MIT\n//pragma关键字：版本申明。\n//用来指示编译器将代码编译成特定版本，以免引起兼容性问题\n//此处不支持0.4.0之前的编译器，也不支持0.5.0之后的编译器（条件为 ^）\n\n//contract关键字：合约申明\n//和Java、PHP中的class类似\n//此处是申明一个名为Hello的合约\n\npragma solidity >=0.4.21 <0.7.0;\n\n\ncontract Hello {\n\n    //public: 函数访问属性(后续文章为详细阐述)\n    //returns (string): 定义返回值类型为string\n   function say(string memory name) public returns (string memory) {\n        return name;\n   }\n}\n",
  "sourcePath": "/Users/corki/Desktop/kucoin/dapp-webpack/contracts/Hello.sol",
  "compiler": {
    "name": "solc",
    "version": "0.5.16+commit.9c3226ce.Emscripten.clang"
  },
  "schemaVersion": "3.4.1",
  "updatedAt": "2021-05-10T07:57:03.942Z",
  "networkType": "ethereum",
  "devdoc": {
    "methods": {}
  },
  "userdoc": {
    "methods": {}
  }
}